:100000000C94C5000C94E2000C94E2000C94E20005
:100010000C94E2000C94E2000C94E2000C94E200D8
:100020000C94E2000C94E2000C94E2000C94E200C8
:100030000C94E2000C94E2000C94E2000C94E200B8
:100040000C94E2000C94E2000C94E2000C94E200A8
:100050000C94E2004E414E494E495459494E46CD0A
:10006000CCCC3D0AD7233C17B7D13877CC2B32956F
:1000700095E6241FB14F0A000020410000C842004D
:10008000401C4620BCBE4CCA1B0E5AAEC59D740017
:10009000407A10F35A00A0724E18090010A5D4E857
:1000A0000000E87648170000E40B54020000CA9AEA
:1000B0003B000000E1F5050000809698000000403C
:1000C000420F000000A08601000000102700000081
:1000D00000E803000000006400000000000A0000C7
:1000E0000000000100000000002C76D888DC674F7B
:1000F0000823DFC1DFAE59E1B1B796E5E3E453C6AB
:100100003AE651997696E8E6C28426EB898C9B62A2
:10011000ED407C6FFCEFBC9C9F40F2BAA56FA5F44C
:1001200090055A2AF75C936B6CF9676DC11BFCE074
:10013000E40D47FEF520E6B500D0ED902E030094C7
:100140003577050080841E080000204E0A0000005C
:10015000C80C333333330F986E12831141EF8D2166
:1001600014893BE65516CFFEE6DB18D1844B381BCD
:10017000F77C1D901DA4BBE424203284725E228192
:1001800000C9F124ECA1E53D270011241FBECFE5F5
:10019000D8E0DEBFCDBF10E0A0E6B0E0EAEAF8E1CB
:1001A00002C005900D92A03BB107D9F720E0A0EB6B
:1001B000B0E001C01D92A03CB207E1F70E94DF054C
:1001C0000C94530C0C94000088B3826088BB82E0CE
:1001D0008A95F1F700C088B38D7F88BB85E88A9542
:1001E000F1F700000895CF93C82F8BB38F709C2F29
:1001F000907F892B8BBB88B38E7F88BB0E94E400E5
:100200002BB330E1C39FC0011124922F9F70892B23
:100210008BBB0E94E400C150C23038F48FE99FE0EC
:100220000197F1F700C0000004C09AE69A95F1F733
:1002300000C0CF910895CF93C82F8BB38F709C2FA0
:10024000907F892B8BBB88B3816088BB0E94E400C0
:100250002BB330E1C39FC0011124922F9F70892BD3
:100260008BBB0E94E4008AE68A95F1F700C0CF912B
:100270000895CF93DF93EC0103C021960E941B01E8
:1002800088818111FACFDF91CF910895CF9387B301
:10029000836087BB80EF8ABB2FE788E391E0215022
:1002A00080409040E1F700C0000088B38E7F88BB9B
:1002B000C0E3CBBB0E94E4008FE097E20197F1F727
:1002C00000C00000CBBB0E94E4008BE291E00197EC
:1002D000F1F700C00000CBBB0E94E4008BE291E08C
:1002E0000197F1F700C0000080E28BBB0E94E400A0
:1002F0008BE291E00197F1F700C0000088E20E94D4
:10030000F3008CE00E94F30081E00E94F30086E09D
:100310000E94F3008FE99FE00197F1F700C0000011
:10032000CF91089581E00E94F3008FE99FE001974B
:10033000F1F700C000000895811103C080E8860F26
:1003400002C080EC860F0E94F3000895EF92FF92A6
:100350000F931F93CF93DF93CDB7DEB7A2970FB65E
:10036000F894DEBF0FBECDBF9E012F5F3F4F7901D6
:10037000890126E040E10E94EB07F701019000208F
:10038000E9F73197EE19FF09AF0180E090E00AC06C
:10039000A1E0B0E0AC0FBD1FA80FB91F2C912E3209
:1003A00031F00196841795079CF38FEF9FEF8F3FF5
:1003B0003FEF930749F19F012150310909C0E1E066
:1003C000F0E0EC0FFD1FE20FF31F10822150310906
:1003D000821793074CF4E1E0F0E0EC0FFD1FE20F11
:1003E000F31F4081403359F3E1E0F0E0EC0FFD1FD3
:1003F000E20FF31F80818E3239F4E1E0F0E0EC0F80
:10040000FD1FE20FF31F108260E070E002C06F5F1B
:100410007F4FE1E0F0E0EC0FFD1FE60FF71F80815A
:100420008032A9F3BF018E010E5E1F4FC8010E94EA
:100430001A08F80101900020E9F731977F01E01ACE
:10044000F10A60E081E00E949C0100E010E019C028
:1004500080E190E08E199F09081719076CF0F801E8
:10046000E81BF90B22E130E02C0F3D1FE20FF31FD8
:1004700080810E941B0103C080E20E941B010F5F6C
:100480001F4F0031110524F3A2960FB6F894DEBF7A
:100490000FBECDBFDF91CF911F910F91FF90EF90D5
:1004A000089581B38F6081BB82B38F6082BB81B3BB
:1004B0008F7081BB82B3806F82BB089520E090E093
:1004C00064C082B38F6082BB913051F028F09230CB
:1004D00059F0933069F00FC082B38E7F82BB0BC09E
:1004E00082B38D7F82BB07C082B38B7F82BB03C088
:1004F00082B3877F82BB8AE18A95F1F700C0849B33
:1005000007C0859B08C0869B09C0879B0AC00BC09B
:1005100021E0E0E008C021E0E1E005C021E0E2E008
:1005200002C021E0E3E0222379F1AFE3BCE91197B7
:10053000F1F700C0000040E050E008C0AFECB7E0C9
:100540001197F1F700C000004F5F5F4F20B36E2F8F
:1005500070E0DB01149630E002C035952795AA952E
:10056000E2F720FD04C0483EB3E05B0738F3892F73
:1005700090E0880F991F880F991F80569F4FFC01AC
:10058000E60FF71F808108959F5F943008F499CF9C
:1005900080E00895CF92DF92EF92FF920F931F9326
:1005A000CF93DF93CDB7DEB7E3970FB6F894DEBFF6
:1005B0000FBECDBF81E1E3E8F0E0DE01939601904C
:1005C0000D928A95E1F760E080E00E949C018091A5
:1005D000B100833018F4813028F009C0833009F469
:1005E000F1C0F4C0CE0183960E943901EFC0609142
:1005F000BA007091BB008091BC009091BD009E013B
:100600002F5F3F4F7901890123E04AE00E94EB0709
:10061000F70101900020E9F73197CF018E199F096A
:10062000019701C0019799234CF0E1E0F0E0EC0F55
:10063000FD1FE80FF91F20812033A1F3992354F007
:10064000E1E0F0E0EC0FFD1FE80FF91F20812E32F2
:1006500009F401970196E1E0F0E0EC0FFD1FE80FCF
:10066000F91F108260E070E002C06F5F7F4FE1E031
:10067000F0E0EC0FFD1FE60FF71F80818032A9F339
:10068000BF017E0193E2E90EF11CC7010E941A0826
:10069000F70101900020E9F73197EE19FF097F017A
:1006A000EF30F105ECF4CF010196A3E2B0E0AC0F1E
:1006B000BD1FAE0FBF1F20E22C9332E0E30EF11CF2
:1006C000E3E2F0E0EC0FFD1FE80FF91F80917100ED
:1006D0008083E3E2F0E0EC0FFD1FEE0DFF1D1082C2
:1006E0008091B100823009F068C06E0182E1C80ECD
:1006F000D11C6091B6007091B7008091B8009091C4
:10070000B900860123E048E00E94EB07F601019062
:100710000020E9F73197CF018C199D09019701C09D
:10072000019799234CF0E2E1F0E0EC0FFD1FE80F98
:10073000F91F20812033A1F3992354F0E2E1F0E086
:10074000EC0FFD1FE80FF91F20812E3209F40197ED
:100750000196E2E1F0E0EC0FFD1FE80FF91F1082B7
:1007600060E070E002C06F5F7F4FE2E1F0E0EC0F0D
:10077000FD1FE60FF71F80818032A9F3DF01019092
:100780000020E9F73197EA1BFB0BEE0DFF1D3196B8
:10079000709798F4C7010196E3E2F0E0EC0FFD1FBB
:1007A000EE0DFF1D20E22083BD0123E230E02C0F7F
:1007B0003D1F820F931F0E941A08CE0183960E944C
:1007C000390104C082E790E00E943901E3960FB638
:1007D000F894DEBF0FBECDBFDF91CF911F910F9177
:1007E000FF90EF90DF90CF9008951092BA00109292
:1007F000BB001092BC001092BD001092B600109287
:10080000B7001092B8001092B9001092B200109286
:10081000B3001092B4001092B50080E28093710092
:1008200080E390E090936100809360001092B100AB
:100830001092B00008950E9492010E94CA0260E0E6
:1008400081E00E949C018091B100833069F483E8CB
:1008500090E00E94390165E081E00E949C0184E9FA
:1008600090E00E9439010895823028F480E690E0FB
:100870000E940B0808C06091B2007091B300809193
:10088000B4009091B5000E94A60108951F93CF93E4
:10089000DF93182FE0E6F0E001900020E9F73197B0
:1008A000EF01C056D0408091B1008250823020F4D8
:1008B0000E94F503C1E0D0E01E32C1F46EE270E0A8
:1008C00080E690E00E940F08892B59F5C031D105D0
:1008D00044F5FE01E05AFF4F8EE28083FE01EF599E
:1008E000FF4F108281E08093B0001BC0C130D10562
:1008F00059F480916000803339F41E3229F0E0E62B
:10090000F0E0108311820BC0C031D10544F4FE0128
:10091000E05AFF4F1083FE01EF59FF4F10820E94F3
:100920001B04DF91CF911F9108958F929F92AF92F8
:10093000BF92CF92DF92EF92FF92CF938091B1005E
:10094000813009F0C0C080E690E00E940B086B0186
:100950007C016093B6007093B7008093B8009093C9
:10096000B900C0917100CF3279F42DEB37E346E83E
:1009700055E39F770E948D06882334F483E08093AB
:10098000B1000E941B049FC0CB3251F018F4CA3250
:1009900089F199C0CD32C9F0CF3209F440C093C07B
:1009A0002091BA003091BB004091BC005091BD0035
:1009B000C701B6010E9421066093B2007093B30094
:1009C0008093B4009093B5003EC0A701960160915A
:1009D000BA007091BB008091BC009091BD000E9454
:1009E00020066093B2007093B3008093B40090939C
:1009F000B50029C02091BA003091BB004091BC00E5
:100A00005091BD00C701B6010E9479076093B20002
:100A10007093B3008093B4009093B50014C0A70105
:100A200096016091BA007091BB008091BC009091DA
:100A3000BD000E9492066093B2007093B300809351
:100A4000B4009093B500C090B200D090B300E09095
:100A5000B400F090B50046015701E894B7F82FEFC5
:100A60003FEF4FE75FE7C501B4010E94E607811140
:100A70000AC02FEF3FEF4FE75FE7C501B4010E94C7
:100A80008D06181644F0A7019601C701B6010E9411
:100A9000E607882369F083E08093B10086E0EAE905
:100AA000F0E0A0E6B0E001900D928A95E1F709C070
:100AB00080E390E0909361008093600082E08093F7
:100AC000B1000E941B04CF91FF90EF90DF90CF9078
:100AD000BF90AF909F908F900895CF93C82F809133
:100AE000B100823001F58091B2009091B300A091E5
:100AF000B400B091B5008093BA009093BB00A0936E
:100B0000BC00B093BD00C093710081E08093B10040
:100B100080E390E090936100809360001092B000B9
:100B20000E941B0445C0813031F50E9495048091DC
:100B3000B1008330E9F18091B2009091B300A091AF
:100B4000B400B091B5008093BA009093BB00A0931D
:100B5000BC00B093BD00C093710081E08093B100F0
:100B600080E390E090936100809360001092B00069
:100B70000E941B041DC081111BC080E690E00E94F2
:100B80000B086093BA007093BB008093BC009093F5
:100B9000BD00C093710081E08093B10080E390E0DC
:100BA00090936100809360001092B0000E941B043B
:100BB000CF9108950E94F5030E941B0408950E949E
:100BC00046010E9451020E94F5030E941B040E94EC
:100BD0005E02882371F169F190ED980F9A3018F454
:100BE0000E94460422C08E3219F40E9446041DC0A1
:100BF0008B3231F08D3221F08A3211F08F3219F4BC
:100C00000E946D0512C08D3361F48091B100813076
:100C100019F40E94950409C0823039F40E949504A9
:100C200004C0833411F40E94DA050E945E0281112F
:100C3000FCCF8FE19EE40197F1F700C00000C7CF21
:100C40005058BB27AA270E9438060C943F070E94E1
:100C5000310738F00E94380720F039F49F3F19F42B
:100C600026F40C942E070EF4E095E7FB0C9428076D
:100C7000E92F0E94500758F3BA17620773078407D9
:100C8000950720F079F4A6F50C9472070EF4E09520
:100C90000B2EBA2FA02D0B01B90190010C01CA0136
:100CA000A0011124FF27591B99F0593F50F4503EE1
:100CB00068F11A16F040A22F232F342F4427585FD3
:100CC000F3CF469537952795A795F0405395C9F7EB
:100CD0007EF41F16BA0B620B730B840BBAF09150A3
:100CE000A1F0FF0FBB1F661F771F881FC2F70EC042
:100CF000BA0F621F731F841F48F487957795679515
:100D0000B795F7959E3F08F0B0CF9395880F08F000
:100D10009927EE0F9795879508950E94040708F488
:100D200081E008950E94A6060C943F070E943807B0
:100D300058F00E94310740F029F45F3F29F00C94ED
:100D4000280751110C9473070C942E070E9450072A
:100D500068F39923B1F3552391F3951B550BBB27EA
:100D6000AA2762177307840738F09F5F5F4F220F2F
:100D7000331F441FAA1FA9F335D00E2E3AF0E0E826
:100D800032D091505040E695001CCAF72BD0FE2F70
:100D900029D0660F771F881FBB1F26173707480704
:100DA000AB07B0E809F0BB0B802DBF01FF279358BC
:100DB0005F4F3AF09E3F510578F00C9428070C9451
:100DC00073075F3FE4F3983ED4F386957795679574
:100DD000B795F7959F5FC9F7880F911D96958795F1
:100DE00097F90895E1E0660F771F881FBB1F621710
:100DF00073078407BA0720F0621B730B840BBA0BCE
:100E0000EE1F88F7E0950895990F0008550FAA0B7B
:100E1000E0E8FEEF16161706E807F907C0F012160D
:100E20001306E407F50798F0621B730B840B950B10
:100E300039F40A2661F0232B242B252B21F4089565
:100E40000A2609F4A140A6958FEF811D811D089502
:100E500097F99F6780E870E060E008959FEF80EC6D
:100E6000089500240A941616170618060906089510
:100E700000240A9412161306140605060895092E76
:100E80000394000C11F4882352F0BB0F40F4BF2BE5
:100E900011F460FF04C06F5F7F4F8F4F9F4F089525
:100EA00057FD9058440F551F59F05F3F71F047951B
:100EB000880F97FB991F61F09F3F79F08795089500
:100EC000121613061406551FF2CF4695F1DF08C01F
:100ED000161617061806991FF1CF8695710561053C
:100EE00008940895E894BB2766277727CB0197F9E4
:100EF00008950E948C070C943F070E94310738F038
:100F00000E94380720F0952311F00C9428070C94C8
:100F10002E0711240C9473070E94500770F3959FBD
:100F2000C1F3950F50E0551F629FF001729FBB27E0
:100F3000F00DB11D639FAA27F00DB11DAA1F649F7C
:100F40006627B00DA11D661F829F2227B00DA11D2F
:100F5000621F739FB00DA11D621F839FA00D611DB5
:100F6000221F749F3327A00D611D231F849F600DD6
:100F7000211D822F762F6A2F11249F5750409AF0FF
:100F8000F1F088234AF0EE0FFF1FBB1F661F771F8B
:100F9000881F91505040A9F79E3F510580F00C9456
:100FA00028070C9473075F3FE4F3983ED4F38695CB
:100FB00077956795B795F795E7959F5FC1F7FE2BF6
:100FC000880F911D9695879597F908950E940407BB
:100FD000880B990B0895EF920F931F93CF93DF9394
:100FE000E80147FD02C034E001C034E1042E000CEA
:100FF000550B57FF03C0519541955109E32E022F20
:10100000242FAE010E942108CE01DF91CF911F91C4
:101010000F91EF900895662777270C947B09FC01C8
:101020008191861721F08823D9F799270895319760
:10103000CF010895FB01DC0101900D920020E1F742
:101040000895A9E0B0E0E7E2F8E00C94130C6A011F
:10105000122FB02E2BE3201720F0FF24F394F00E74
:1010600002C02CE3F22E0F2D27E0AE014F5F5F4F41
:101070000E94C90ABC014981842F8970813031F0F6
:10108000E1FC06C0E0FE06C090E205C09DE203C0A0
:101090009BE201C090E05E2D507143FF3CC0911176
:1010A00002C083E001C084E0811718F4212F281BBF
:1010B00001C020E051110BC0F601822F30E28823DD
:1010C00019F031938150FBCFC20ED11C20E099233F
:1010D00029F0D6019C93F60131966F01C601039663
:1010E000E2FE0AC03EE4D6013C9341E411964C93E3
:1010F000119712963C9306C03EE6F601308341E616
:1011000041833283FC01322F40E2332309F442C091
:1011100041933150FACF42FF44C0911102C083E0A5
:1011200001C084E0811718F4212F281B01C020E0A2
:1011300051110BC0F601822F30E2882319F0319350
:101140008150FBCFC20ED11C20E0992329F0D6019B
:101150009C93F60131966F01C6010396E2FE0BC027
:1011600039E4D6013C933EE411963C93119736E462
:1011700012963C9307C039E6F60130833EE6318390
:1011800036E63283FC01322F40E2332319F04193DB
:101190003150FBCFFC01E20FF11D10828EEF9FEF6B
:1011A000A6C021E030E0911102C020E030E0161628
:1011B00017061CF4FB01319602C0E1E0F0E02E0FAF
:1011C0003F1FBB2021F0EB2DF0E0319602C0E0E0A4
:1011D000F0E02E0F3F1FE12FF0E02E173F071CF429
:1011E000121B212F01C020E08E2D887159F4F601C9
:1011F000822F30E2882319F031938150FBCFC20E49
:10120000D11C20E0992329F0D6019C93F601319658
:101210006F0151110BC0F601822F90E3882319F062
:1012200091938150FBCFC20ED11C20E00F2D060FF1
:101230009A81342F307144FF03C0913309F4015077
:10124000101624F4093018F008E001C001E0AB01E9
:1012500077FF02C040E050E0FB01E41BF50BA1E08A
:10126000B0E0AC0FBD1FEA0FFB1F8EE2A82E4B01B2
:10127000801A91080B2D10E01195019511094F3F2F
:10128000BFEF5B0721F4D601AC9211966D01641794
:1012900075072CF08416950614F4818101C080E353
:1012A000415051093196D60111967D0140175107E1
:1012B00024F0D6018C936701E2CF6417750739F4E7
:1012C000963320F4953319F4311101C081E3F6010E
:1012D0008083F701822F90E2882319F09193815047
:1012E000FBCFF701E20FF11D108280E090E029961C
:1012F000ECE00C942F0CA0E0B0E0E1E8F9E00C94F5
:10130000130CEC016B016115710519F0FB01918360
:1013100080837E01FFEFEF1AFF0A0881802F90E0A3
:101320000E94A10B892B11F0E701F3CF0D3239F4A4
:101330007E0182E0E80EF11C098111E008C00B3249
:1013400029F47E0192E0E90EF11C098110E0E70129
:10135000219743E050E06CE570E0CE010E94AA0BBB
:10136000892BC1F4239645E050E067E570E0CE019B
:101370000E94AA0B892B09F42596C114D10419F0F7
:10138000F601D183C0831111F6C060E070E080E8FF
:101390009FE7FAC043E050E064E570E0CE010E94B0
:1013A000AA0B892B59F4C114D10409F4E9C0F2E065
:1013B000EF0EF11CF601F182E082E2C020E030E0A5
:1013C000A901C0E0D0E0F70180EDA82EA00E89E0D1
:1013D0008A1530F1912F9260B92E812F887012FFFB
:1013E00004C0811124C0219622C081112197A5E05B
:1013F000B0E00E94020CDC01CB01880F991FAA1FEC
:10140000BB1F9C01AD012A0D311D411D511D283905
:1014100089E93807480789E1580748F0166006C08F
:101420009EEFA9120AC013FD40C01860B12E8FEFC5
:10143000E81AF80A00811B2DC6CF802F8F7D8534D6
:10144000A1F580818D3211F4106106C08B3221F03C
:10145000319661E070E004C08181329662E070E014
:1014600080538A3018F0E61BF70B1FC060E070E075
:1014700060389CE079075CF4DB01AA0FBB1FAA0F60
:10148000BB1F6A0F7B1F660F771F680F711D319698
:10149000DF0111978C9180538A3050F314FF03C001
:1014A000719561957109C60FD71F11FF08C0C1144E
:1014B000D10429F0CF010197F60191838083CA01FD
:1014C000B9010E94C20B212F2370233019F04B0168
:1014D0005C0106C04B015C01B7FAB094B7F8B09458
:1014E00020E030E0A901C501B4010E948D068823E7
:1014F00009F43EC0D7FF06C0D195C195D10903E7D5
:1015000010E002C00BE810E06801F8E1CF1AD10842
:1015100090E2E92EF12CCE15DF0574F0F80125914B
:10152000359145915491C501B4010E9479074B0151
:101530005C01CE19DF09EFCF04501109F594E7944F
:101540000C151D0541F78A2D880F8B2D881F8F3FA5
:1015500049F020E030E0A901C501B4010E948D06E8
:10156000811106C082E290E09093BF008093BE009C
:10157000C501B40109C060E070E080E89FEF04C0DD
:1015800060E070E080EC9FE7CDB7DEB7ECE00C9454
:101590002F0C283008F027E03327DA01990F311D8E
:1015A00087FD916000966105710539F432602E5F08
:1015B0003D9330E32A95E1F708959F3F30F080385E
:1015C0007105610509F03C5F3C5F3D93913008F087
:1015D0008068911DDF93CF931F930F93FF92EF923B
:1015E000192F987F9695E92F96959695E90FFF27E5
:1015F000E751FF4F99273327EE24FF24A701E70186
:1016000005900894079428F4360FE71EF81E491F2A
:10161000511D660F771F881F991F0694A1F705902B
:10162000079428F4E70EF81E491F561FC11D770FB7
:10163000881F991F661F0694A1F70590079428F448
:10164000F80E491F561FC71FD11D880F991F661F0F
:10165000771F0694A1F70590079420F4490F561FB1
:10166000C71FD81F990F661F771F881F0694A9F7F9
:1016700084911095177041F0D695C7955795479569
:10168000F794E7941A95C1F7EFE8F0E068941590A5
:10169000159135916591959105907FE27395E118CB
:1016A000F10A430B560BC90BD009C0F7E10CF11E30
:1016B000431F561FC91FD01D7EF4703311F48A9545
:1016C000E6CFE894015030F0080F0AF40027021723
:1016D00008F4202F2395022F7A3328F079E37D93A5
:1016E0002A95E9F710C07D932A9589F60694979577
:1016F0006795379517951794E118F10A430B560B28
:10170000C90BD00998F023957E9173957A3308F030
:1017100070E37C932013B8F77E9170617D9330F075
:10172000839571E37D9370E32A95E1F71124EF909F
:10173000FF900F911F91CF91DF91992787FD909591
:10174000089591110C94FF0B803219F08950855047
:10175000C8F70895FB01DC014150504088F08D919D
:1017600081341CF08B350CF4805E659161341CF083
:101770006B350CF4605E861B611171F3990B089553
:10178000881BFCCFE89409C097FB3EF490958095A8
:10179000709561957F4F8F4F9F4F9923A9F0F92F37
:1017A00096E9BB279395F695879577956795B795B5
:1017B000F111F8CFFAF4BB0F11F460FF1BC06F5F9B
:1017C0007F4F8F4F9F4F16C0882311F096E911C0AD
:1017D000772321F09EE8872F762F05C0662371F0CE
:1017E00096E8862F70E060E02AF09A95660F771FE2
:1017F000881FDAF7880F9695879597F908959927A6
:10180000882708950E94440CA59F900DB49F900DC9
:10181000A49F800D911D112408952F923F924F9205
:101820005F926F927F928F929F92AF92BF92CF9270
:10183000DF92EF92FF920F931F93CF93DF93CDB779
:10184000DEB7CA1BDB0B0FB6F894DEBF0FBECDBFF1
:1018500009942A88398848885F846E847D848C84C2
:101860009B84AA84B984C884DF80EE80FD800C81CB
:101870001B81AA81B981CE0FD11D0FB6F894DEBFAE
:101880000FBECDBFED010895A29FB001B39FC0016F
:10189000A39F700D811D1124911DB29F700D811D9C
:0A18A0001124911D0895F894FFCF64
:1018AA0030000000000000000000000000000000FE
:1018BA0000202020204572726F72202020202020D4
:1018CA00202000202020202020202020202020202E
:1018DA00202020004449562F30004572726F720052
:1018EA003738392F3435362A3132332D43303D2BB0
:00000001FF
